{
  "_format": "hh-sol-artifact-1",
  "contractName": "VerifierContract",
  "sourceName": "contracts/Lock.sol",
  "abi": [
    {
      "inputs": [],
      "stateMutability": "nonpayable",
      "type": "constructor"
    },
    {
      "anonymous": false,
      "inputs": [
        {
          "indexed": true,
          "internalType": "bytes32",
          "name": "fileHash",
          "type": "bytes32"
        },
        {
          "indexed": true,
          "internalType": "address",
          "name": "holder",
          "type": "address"
        }
      ],
      "name": "FileUploaded",
      "type": "event"
    },
    {
      "anonymous": false,
      "inputs": [
        {
          "indexed": true,
          "internalType": "address",
          "name": "user",
          "type": "address"
        },
        {
          "indexed": false,
          "internalType": "bool",
          "name": "valid",
          "type": "bool"
        }
      ],
      "name": "ZKPVerified",
      "type": "event"
    },
    {
      "inputs": [
        {
          "internalType": "bytes32",
          "name": "",
          "type": "bytes32"
        }
      ],
      "name": "files",
      "outputs": [
        {
          "internalType": "string",
          "name": "id",
          "type": "string"
        },
        {
          "internalType": "bytes32",
          "name": "fileHash",
          "type": "bytes32"
        },
        {
          "internalType": "bytes32",
          "name": "metadataHash",
          "type": "bytes32"
        },
        {
          "internalType": "bytes",
          "name": "encryptedFileKey",
          "type": "bytes"
        },
        {
          "internalType": "address",
          "name": "holder",
          "type": "address"
        },
        {
          "internalType": "bool",
          "name": "exists",
          "type": "bool"
        }
      ],
      "stateMutability": "view",
      "type": "function"
    },
    {
      "inputs": [
        {
          "internalType": "string",
          "name": "",
          "type": "string"
        }
      ],
      "name": "filesById",
      "outputs": [
        {
          "internalType": "string",
          "name": "id",
          "type": "string"
        },
        {
          "internalType": "bytes32",
          "name": "fileHash",
          "type": "bytes32"
        },
        {
          "internalType": "bytes32",
          "name": "metadataHash",
          "type": "bytes32"
        },
        {
          "internalType": "bytes",
          "name": "encryptedFileKey",
          "type": "bytes"
        },
        {
          "internalType": "address",
          "name": "holder",
          "type": "address"
        },
        {
          "internalType": "bool",
          "name": "exists",
          "type": "bool"
        }
      ],
      "stateMutability": "view",
      "type": "function"
    },
    {
      "inputs": [
        {
          "internalType": "bytes32",
          "name": "_fileHash",
          "type": "bytes32"
        }
      ],
      "name": "getFileInfo",
      "outputs": [
        {
          "components": [
            {
              "internalType": "string",
              "name": "id",
              "type": "string"
            },
            {
              "internalType": "bytes32",
              "name": "fileHash",
              "type": "bytes32"
            },
            {
              "internalType": "bytes32",
              "name": "metadataHash",
              "type": "bytes32"
            },
            {
              "internalType": "bytes",
              "name": "encryptedFileKey",
              "type": "bytes"
            },
            {
              "internalType": "address",
              "name": "holder",
              "type": "address"
            },
            {
              "internalType": "bool",
              "name": "exists",
              "type": "bool"
            }
          ],
          "internalType": "struct VerifierContract.FileInfo",
          "name": "",
          "type": "tuple"
        }
      ],
      "stateMutability": "view",
      "type": "function"
    },
    {
      "inputs": [
        {
          "internalType": "string",
          "name": "_id",
          "type": "string"
        }
      ],
      "name": "getFileInfoById",
      "outputs": [
        {
          "components": [
            {
              "internalType": "string",
              "name": "id",
              "type": "string"
            },
            {
              "internalType": "bytes32",
              "name": "fileHash",
              "type": "bytes32"
            },
            {
              "internalType": "bytes32",
              "name": "metadataHash",
              "type": "bytes32"
            },
            {
              "internalType": "bytes",
              "name": "encryptedFileKey",
              "type": "bytes"
            },
            {
              "internalType": "address",
              "name": "holder",
              "type": "address"
            },
            {
              "internalType": "bool",
              "name": "exists",
              "type": "bool"
            }
          ],
          "internalType": "struct VerifierContract.FileInfo",
          "name": "",
          "type": "tuple"
        }
      ],
      "stateMutability": "view",
      "type": "function"
    },
    {
      "inputs": [
        {
          "internalType": "address",
          "name": "_holder",
          "type": "address"
        }
      ],
      "name": "getHolderFileInfos",
      "outputs": [
        {
          "components": [
            {
              "internalType": "string",
              "name": "id",
              "type": "string"
            },
            {
              "internalType": "bytes32",
              "name": "fileHash",
              "type": "bytes32"
            },
            {
              "internalType": "bytes32",
              "name": "metadataHash",
              "type": "bytes32"
            },
            {
              "internalType": "bytes",
              "name": "encryptedFileKey",
              "type": "bytes"
            },
            {
              "internalType": "address",
              "name": "holder",
              "type": "address"
            },
            {
              "internalType": "bool",
              "name": "exists",
              "type": "bool"
            }
          ],
          "internalType": "struct VerifierContract.FileInfo[]",
          "name": "",
          "type": "tuple[]"
        }
      ],
      "stateMutability": "view",
      "type": "function"
    },
    {
      "inputs": [
        {
          "internalType": "address",
          "name": "",
          "type": "address"
        },
        {
          "internalType": "uint256",
          "name": "",
          "type": "uint256"
        }
      ],
      "name": "holderFiles",
      "outputs": [
        {
          "internalType": "bytes32",
          "name": "",
          "type": "bytes32"
        }
      ],
      "stateMutability": "view",
      "type": "function"
    },
    {
      "inputs": [
        {
          "internalType": "bytes32",
          "name": "",
          "type": "bytes32"
        }
      ],
      "name": "metaFile",
      "outputs": [
        {
          "internalType": "string",
          "name": "id",
          "type": "string"
        },
        {
          "internalType": "bytes32",
          "name": "fileHash",
          "type": "bytes32"
        },
        {
          "internalType": "bytes32",
          "name": "metadataHash",
          "type": "bytes32"
        },
        {
          "internalType": "bytes",
          "name": "encryptedFileKey",
          "type": "bytes"
        },
        {
          "internalType": "address",
          "name": "holder",
          "type": "address"
        },
        {
          "internalType": "bool",
          "name": "exists",
          "type": "bool"
        }
      ],
      "stateMutability": "view",
      "type": "function"
    },
    {
      "inputs": [],
      "name": "owner",
      "outputs": [
        {
          "internalType": "address",
          "name": "",
          "type": "address"
        }
      ],
      "stateMutability": "view",
      "type": "function"
    },
    {
      "inputs": [
        {
          "internalType": "bytes32",
          "name": "_fileHash",
          "type": "bytes32"
        },
        {
          "components": [
            {
              "internalType": "string",
              "name": "id",
              "type": "string"
            },
            {
              "internalType": "bytes32",
              "name": "metadataHash",
              "type": "bytes32"
            },
            {
              "internalType": "bytes",
              "name": "encryptedFileKey",
              "type": "bytes"
            }
          ],
          "internalType": "struct VerifierContract.FileData",
          "name": "fileData",
          "type": "tuple"
        }
      ],
      "name": "uploadFile",
      "outputs": [],
      "stateMutability": "nonpayable",
      "type": "function"
    },
    {
      "inputs": [
        {
          "internalType": "bytes32",
          "name": "_metadataHash",
          "type": "bytes32"
        }
      ],
      "name": "verifyFileByMetaHash",
      "outputs": [
        {
          "internalType": "bool",
          "name": "",
          "type": "bool"
        }
      ],
      "stateMutability": "view",
      "type": "function"
    }
  ],
  "bytecode": "0x608060405234801561001057600080fd5b50336000806101000a81548173ffffffffffffffffffffffffffffffffffffffff021916908373ffffffffffffffffffffffffffffffffffffffff1602179055506124bd806100606000396000f3fe608060405234801561001057600080fd5b506004361061009e5760003560e01c806398c9adff1161006657806398c9adff14610186578063aadf0a2c146101bb578063ccc57fed146101d7578063d7b1b52d14610207578063ebf098c7146102375761009e565b806303fe9332146100a357806332e6a6ce146100d357806352f7347b146101035780635bfc674c146101335780638da5cb5b14610168575b600080fd5b6100bd60048036038101906100b8919061143a565b61026c565b6040516100ca91906116e1565b60405180910390f35b6100ed60048036038101906100e89190611739565b61057c565b6040516100fa9190611788565b60405180910390f35b61011d600480360381019061011891906117cf565b6105ad565b60405161012a919061188c565b60405180910390f35b61014d600480360381019061014891906117cf565b6107e8565b60405161015f96959493929190611960565b60405180910390f35b610170610961565b60405161017d91906119cf565b60405180910390f35b6101a0600480360381019061019b91906117cf565b610985565b6040516101b296959493929190611960565b60405180910390f35b6101d560048036038101906101d09190611c66565b610afe565b005b6101f160048036038101906101ec91906117cf565b610f28565b6040516101fe9190611cc2565b60405180910390f35b610221600480360381019061021c9190611cdd565b610f96565b60405161022e919061188c565b60405180910390f35b610251600480360381019061024c9190611cdd565b6111e5565b60405161026396959493929190611960565b60405180910390f35b60606000600460008473ffffffffffffffffffffffffffffffffffffffff1673ffffffffffffffffffffffffffffffffffffffff1681526020019081526020016000208054806020026020016040519081016040528092919081815260200182805480156102f957602002820191906000526020600020905b8154815260200190600101908083116102e5575b505050505090506000815167ffffffffffffffff81111561031d5761031c6119ef565b5b60405190808252806020026020018201604052801561035657816020015b610343611374565b81526020019060019003908161033b5790505b50905060005b8251811015610571576001600084838151811061037c5761037b611d26565b5b602002602001015181526020019081526020016000206040518060c00160405290816000820180546103ad90611d84565b80601f01602080910402602001604051908101604052809291908181526020018280546103d990611d84565b80156104265780601f106103fb57610100808354040283529160200191610426565b820191906000526020600020905b81548152906001019060200180831161040957829003601f168201915b50505050508152602001600182015481526020016002820154815260200160038201805461045390611d84565b80601f016020809104026020016040519081016040528092919081815260200182805461047f90611d84565b80156104cc5780601f106104a1576101008083540402835291602001916104cc565b820191906000526020600020905b8154815290600101906020018083116104af57829003601f168201915b505050505081526020016004820160009054906101000a900473ffffffffffffffffffffffffffffffffffffffff1673ffffffffffffffffffffffffffffffffffffffff1673ffffffffffffffffffffffffffffffffffffffff1681526020016004820160149054906101000a900460ff16151515158152505082828151811061055957610558611d26565b5b6020026020010181905250808060010191505061035c565b508092505050919050565b6004602052816000526040600020818154811061059857600080fd5b90600052602060002001600091509150505481565b6105b5611374565b816001600082815260200190815260200160002060040160149054906101000a900460ff16610619576040517f08c379a000000000000000000000000000000000000000000000000000000000815260040161061090611e01565b60405180910390fd5b600160008481526020019081526020016000206040518060c001604052908160008201805461064790611d84565b80601f016020809104026020016040519081016040528092919081815260200182805461067390611d84565b80156106c05780601f10610695576101008083540402835291602001916106c0565b820191906000526020600020905b8154815290600101906020018083116106a357829003601f168201915b5050505050815260200160018201548152602001600282015481526020016003820180546106ed90611d84565b80601f016020809104026020016040519081016040528092919081815260200182805461071990611d84565b80156107665780601f1061073b57610100808354040283529160200191610766565b820191906000526020600020905b81548152906001019060200180831161074957829003601f168201915b505050505081526020016004820160009054906101000a900473ffffffffffffffffffffffffffffffffffffffff1673ffffffffffffffffffffffffffffffffffffffff1673ffffffffffffffffffffffffffffffffffffffff1681526020016004820160149054906101000a900460ff161515151581525050915050919050565b600260205280600052604060002060009150905080600001805461080b90611d84565b80601f016020809104026020016040519081016040528092919081815260200182805461083790611d84565b80156108845780601f1061085957610100808354040283529160200191610884565b820191906000526020600020905b81548152906001019060200180831161086757829003601f168201915b5050505050908060010154908060020154908060030180546108a590611d84565b80601f01602080910402602001604051908101604052809291908181526020018280546108d190611d84565b801561091e5780601f106108f35761010080835404028352916020019161091e565b820191906000526020600020905b81548152906001019060200180831161090157829003601f168201915b5050505050908060040160009054906101000a900473ffffffffffffffffffffffffffffffffffffffff16908060040160149054906101000a900460ff16905086565b60008054906101000a900473ffffffffffffffffffffffffffffffffffffffff1681565b60016020528060005260406000206000915090508060000180546109a890611d84565b80601f01602080910402602001604051908101604052809291908181526020018280546109d490611d84565b8015610a215780601f106109f657610100808354040283529160200191610a21565b820191906000526020600020905b815481529060010190602001808311610a0457829003601f168201915b505050505090806001015490806002015490806003018054610a4290611d84565b80601f0160208091040260200160405190810160405280929190818152602001828054610a6e90611d84565b8015610abb5780601f10610a9057610100808354040283529160200191610abb565b820191906000526020600020905b815481529060010190602001808311610a9e57829003601f168201915b5050505050908060040160009054906101000a900473ffffffffffffffffffffffffffffffffffffffff16908060040160149054906101000a900460ff16905086565b6001600083815260200190815260200160002060040160149054906101000a900460ff1615610b62576040517f08c379a0000000000000000000000000000000000000000000000000000000008152600401610b5990611e6d565b60405180910390fd5b6040518060c001604052808260000151815260200183815260200182602001518152602001826040015181526020013373ffffffffffffffffffffffffffffffffffffffff16815260200160011515815250600160008481526020019081526020016000206000820151816000019081610bdc9190612039565b5060208201518160010155604082015181600201556060820151816003019081610c069190612166565b5060808201518160040160006101000a81548173ffffffffffffffffffffffffffffffffffffffff021916908373ffffffffffffffffffffffffffffffffffffffff16021790555060a08201518160040160146101000a81548160ff02191690831515021790555090505060016000838152602001908152602001600020600260008360200151815260200190815260200160002060008201816000019081610caf919061224e565b50600182015481600101556002820154816002015560038201816003019081610cd8919061234c565b506004820160009054906101000a900473ffffffffffffffffffffffffffffffffffffffff168160040160006101000a81548173ffffffffffffffffffffffffffffffffffffffff021916908373ffffffffffffffffffffffffffffffffffffffff1602179055506004820160149054906101000a900460ff168160040160146101000a81548160ff0219169083151502179055509050506001600083815260200190815260200160002060038260000151604051610d979190612470565b908152602001604051809103902060008201816000019081610db9919061224e565b50600182015481600101556002820154816002015560038201816003019081610de2919061234c565b506004820160009054906101000a900473ffffffffffffffffffffffffffffffffffffffff168160040160006101000a81548173ffffffffffffffffffffffffffffffffffffffff021916908373ffffffffffffffffffffffffffffffffffffffff1602179055506004820160149054906101000a900460ff168160040160146101000a81548160ff021916908315150217905550905050600460003373ffffffffffffffffffffffffffffffffffffffff1673ffffffffffffffffffffffffffffffffffffffff1681526020019081526020016000208290806001815401808255809150506001900390600052602060002001600090919091909150553373ffffffffffffffffffffffffffffffffffffffff16827f1c2b3c6e3923f41a2d3bf31152b8d66b21986cae8519d3a130ba0d55dc9f3f3e60405160405180910390a35050565b60006002600083815260200190815260200160002060040160149054906101000a900460ff16610f8d576040517f08c379a0000000000000000000000000000000000000000000000000000000008152600401610f8490611e01565b60405180910390fd5b60019050919050565b610f9e611374565b600382604051610fae9190612470565b908152602001604051809103902060040160149054906101000a900460ff1661100c576040517f08c379a000000000000000000000000000000000000000000000000000000000815260040161100390611e01565b60405180910390fd5b60038260405161101c9190612470565b90815260200160405180910390206040518060c001604052908160008201805461104590611d84565b80601f016020809104026020016040519081016040528092919081815260200182805461107190611d84565b80156110be5780601f10611093576101008083540402835291602001916110be565b820191906000526020600020905b8154815290600101906020018083116110a157829003601f168201915b5050505050815260200160018201548152602001600282015481526020016003820180546110eb90611d84565b80601f016020809104026020016040519081016040528092919081815260200182805461111790611d84565b80156111645780601f1061113957610100808354040283529160200191611164565b820191906000526020600020905b81548152906001019060200180831161114757829003601f168201915b505050505081526020016004820160009054906101000a900473ffffffffffffffffffffffffffffffffffffffff1673ffffffffffffffffffffffffffffffffffffffff1673ffffffffffffffffffffffffffffffffffffffff1681526020016004820160149054906101000a900460ff1615151515815250509050919050565b60038180516020810182018051848252602083016020850120818352809550505050505060009150905080600001805461121e90611d84565b80601f016020809104026020016040519081016040528092919081815260200182805461124a90611d84565b80156112975780601f1061126c57610100808354040283529160200191611297565b820191906000526020600020905b81548152906001019060200180831161127a57829003601f168201915b5050505050908060010154908060020154908060030180546112b890611d84565b80601f01602080910402602001604051908101604052809291908181526020018280546112e490611d84565b80156113315780601f1061130657610100808354040283529160200191611331565b820191906000526020600020905b81548152906001019060200180831161131457829003601f168201915b5050505050908060040160009054906101000a900473ffffffffffffffffffffffffffffffffffffffff16908060040160149054906101000a900460ff16905086565b6040518060c0016040528060608152602001600080191681526020016000801916815260200160608152602001600073ffffffffffffffffffffffffffffffffffffffff1681526020016000151581525090565b6000604051905090565b600080fd5b600080fd5b600073ffffffffffffffffffffffffffffffffffffffff82169050919050565b6000611407826113dc565b9050919050565b611417816113fc565b811461142257600080fd5b50565b6000813590506114348161140e565b92915050565b6000602082840312156114505761144f6113d2565b5b600061145e84828501611425565b91505092915050565b600081519050919050565b600082825260208201905092915050565b6000819050602082019050919050565b600081519050919050565b600082825260208201905092915050565b60005b838110156114cd5780820151818401526020810190506114b2565b60008484015250505050565b6000601f19601f8301169050919050565b60006114f582611493565b6114ff818561149e565b935061150f8185602086016114af565b611518816114d9565b840191505092915050565b6000819050919050565b61153681611523565b82525050565b600081519050919050565b600082825260208201905092915050565b60006115638261153c565b61156d8185611547565b935061157d8185602086016114af565b611586816114d9565b840191505092915050565b61159a816113fc565b82525050565b60008115159050919050565b6115b5816115a0565b82525050565b600060c08301600083015184820360008601526115d882826114ea565b91505060208301516115ed602086018261152d565b506040830151611600604086018261152d565b50606083015184820360608601526116188282611558565b915050608083015161162d6080860182611591565b5060a083015161164060a08601826115ac565b508091505092915050565b600061165783836115bb565b905092915050565b6000602082019050919050565b600061167782611467565b6116818185611472565b93508360208202850161169385611483565b8060005b858110156116cf57848403895281516116b0858261164b565b94506116bb8361165f565b925060208a01995050600181019050611697565b50829750879550505050505092915050565b600060208201905081810360008301526116fb818461166c565b905092915050565b6000819050919050565b61171681611703565b811461172157600080fd5b50565b6000813590506117338161170d565b92915050565b600080604083850312156117505761174f6113d2565b5b600061175e85828601611425565b925050602061176f85828601611724565b9150509250929050565b61178281611523565b82525050565b600060208201905061179d6000830184611779565b92915050565b6117ac81611523565b81146117b757600080fd5b50565b6000813590506117c9816117a3565b92915050565b6000602082840312156117e5576117e46113d2565b5b60006117f3848285016117ba565b91505092915050565b600060c083016000830151848203600086015261181982826114ea565b915050602083015161182e602086018261152d565b506040830151611841604086018261152d565b50606083015184820360608601526118598282611558565b915050608083015161186e6080860182611591565b5060a083015161188160a08601826115ac565b508091505092915050565b600060208201905081810360008301526118a681846117fc565b905092915050565b600082825260208201905092915050565b60006118ca82611493565b6118d481856118ae565b93506118e48185602086016114af565b6118ed816114d9565b840191505092915050565b600082825260208201905092915050565b60006119148261153c565b61191e81856118f8565b935061192e8185602086016114af565b611937816114d9565b840191505092915050565b61194b816113fc565b82525050565b61195a816115a0565b82525050565b600060c082019050818103600083015261197a81896118bf565b90506119896020830188611779565b6119966040830187611779565b81810360608301526119a88186611909565b90506119b76080830185611942565b6119c460a0830184611951565b979650505050505050565b60006020820190506119e46000830184611942565b92915050565b600080fd5b7f4e487b7100000000000000000000000000000000000000000000000000000000600052604160045260246000fd5b611a27826114d9565b810181811067ffffffffffffffff82111715611a4657611a456119ef565b5b80604052505050565b6000611a596113c8565b9050611a658282611a1e565b919050565b600080fd5b600080fd5b600080fd5b600067ffffffffffffffff821115611a9457611a936119ef565b5b611a9d826114d9565b9050602081019050919050565b82818337600083830152505050565b6000611acc611ac784611a79565b611a4f565b905082815260208101848484011115611ae857611ae7611a74565b5b611af3848285611aaa565b509392505050565b600082601f830112611b1057611b0f611a6f565b5b8135611b20848260208601611ab9565b91505092915050565b600067ffffffffffffffff821115611b4457611b436119ef565b5b611b4d826114d9565b9050602081019050919050565b6000611b6d611b6884611b29565b611a4f565b905082815260208101848484011115611b8957611b88611a74565b5b611b94848285611aaa565b509392505050565b600082601f830112611bb157611bb0611a6f565b5b8135611bc1848260208601611b5a565b91505092915050565b600060608284031215611be057611bdf6119ea565b5b611bea6060611a4f565b9050600082013567ffffffffffffffff811115611c0a57611c09611a6a565b5b611c1684828501611afb565b6000830152506020611c2a848285016117ba565b602083015250604082013567ffffffffffffffff811115611c4e57611c4d611a6a565b5b611c5a84828501611b9c565b60408301525092915050565b60008060408385031215611c7d57611c7c6113d2565b5b6000611c8b858286016117ba565b925050602083013567ffffffffffffffff811115611cac57611cab6113d7565b5b611cb885828601611bca565b9150509250929050565b6000602082019050611cd76000830184611951565b92915050565b600060208284031215611cf357611cf26113d2565b5b600082013567ffffffffffffffff811115611d1157611d106113d7565b5b611d1d84828501611afb565b91505092915050565b7f4e487b7100000000000000000000000000000000000000000000000000000000600052603260045260246000fd5b7f4e487b7100000000000000000000000000000000000000000000000000000000600052602260045260246000fd5b60006002820490506001821680611d9c57607f821691505b602082108103611daf57611dae611d55565b5b50919050565b7f46696c6520646f6573206e6f7420657869737400000000000000000000000000600082015250565b6000611deb6013836118ae565b9150611df682611db5565b602082019050919050565b60006020820190508181036000830152611e1a81611dde565b9050919050565b7f46696c6520616c72656164792065786973747300000000000000000000000000600082015250565b6000611e576013836118ae565b9150611e6282611e21565b602082019050919050565b60006020820190508181036000830152611e8681611e4a565b9050919050565b60008190508160005260206000209050919050565b60006020601f8301049050919050565b600082821b905092915050565b600060088302611eef7fffffffffffffffffffffffffffffffffffffffffffffffffffffffffffffffff82611eb2565b611ef98683611eb2565b95508019841693508086168417925050509392505050565b6000819050919050565b6000611f36611f31611f2c84611703565b611f11565b611703565b9050919050565b6000819050919050565b611f5083611f1b565b611f64611f5c82611f3d565b848454611ebf565b825550505050565b600090565b611f79611f6c565b611f84818484611f47565b505050565b5b81811015611fa857611f9d600082611f71565b600181019050611f8a565b5050565b601f821115611fed57611fbe81611e8d565b611fc784611ea2565b81016020851015611fd6578190505b611fea611fe285611ea2565b830182611f89565b50505b505050565b600082821c905092915050565b600061201060001984600802611ff2565b1980831691505092915050565b60006120298383611fff565b9150826002028217905092915050565b61204282611493565b67ffffffffffffffff81111561205b5761205a6119ef565b5b6120658254611d84565b612070828285611fac565b600060209050601f8311600181146120a35760008415612091578287015190505b61209b858261201d565b865550612103565b601f1984166120b186611e8d565b60005b828110156120d9578489015182556001820191506020850194506020810190506120b4565b868310156120f657848901516120f2601f891682611fff565b8355505b6001600288020188555050505b505050505050565b60008190508160005260206000209050919050565b601f821115612161576121328161210b565b61213b84611ea2565b8101602085101561214a578190505b61215e61215685611ea2565b830182611f89565b50505b505050565b61216f8261153c565b67ffffffffffffffff811115612188576121876119ef565b5b6121928254611d84565b61219d828285612120565b600060209050601f8311600181146121d057600084156121be578287015190505b6121c8858261201d565b865550612230565b601f1984166121de8661210b565b60005b82811015612206578489015182556001820191506020850194506020810190506121e1565b86831015612223578489015161221f601f891682611fff565b8355505b6001600288020188555050505b505050505050565b60008154905061224781611d84565b9050919050565b81810361225c575050612334565b61226582612238565b67ffffffffffffffff81111561227e5761227d6119ef565b5b6122888254611d84565b612293828285611fac565b6000601f8311600181146122c257600084156122b0578287015490505b6122ba858261201d565b86555061232d565b601f1984166122d087611e8d565b96506122db86611e8d565b60005b82811015612303578489015482556001820191506001850194506020810190506122de565b86831015612320578489015461231c601f891682611fff565b8355505b6001600288020188555050505b5050505050505b565b60008154905061234581611d84565b9050919050565b81810361235a575050612432565b61236382612336565b67ffffffffffffffff81111561237c5761237b6119ef565b5b6123868254611d84565b612391828285612120565b6000601f8311600181146123c057600084156123ae578287015490505b6123b8858261201d565b86555061242b565b601f1984166123ce8761210b565b96506123d98661210b565b60005b82811015612401578489015482556001820191506001850194506020810190506123dc565b8683101561241e578489015461241a601f891682611fff565b8355505b6001600288020188555050505b5050505050505b565b600081905092915050565b600061244a82611493565b6124548185612434565b93506124648185602086016114af565b80840191505092915050565b600061247c828461243f565b91508190509291505056fea26469706673582212208f4a8a17e016cfa06de9c34f2b3e26c4b48bd4ee4e0d988983292ffb0a06424b64736f6c63430008180033",
  "linkReferences": {},
  "deployedLinkReferences": {}
}